:020000040800F2
:10000000800700206901000855090008250500083F
:100010006D0500082F0300082D17000800000000E0
:10002000000000000000000000000000CF090008F0
:10003000B903000800000000CD090008AD0B00085E
:100040008301000883010008830100088301000880
:100050008301000883010008830100088301000870
:100060000000000083010008830100083503000838
:1000700083010008830100088301000800000000DC
:10008000AD110008D112000800000000AD0C0008FE
:100090000111000881110008830100088301000894
:1000A0008301000883010008830100088301000820
:1000B00083010008000000000000000000000000B4
:1000C00083010008000000008301000800F002F82E
:1000D00000F03AF80AA090E8000C82448344AAF1A8
:1000E0000107DA4501D100F02FF8AFF2090EBAE8A6
:1000F0000F0013F0010F18BFFB1A43F0010318475C
:100100001855000038550000103A24BF78C878C14F
:10011000FAD8520724BF30C830C144BF04680C600D
:10012000704700000023002400250026103A28BF55
:1001300078C1FBD8520728BF30C148BF0B60704759
:100140001FB51FBD10B510BD00F0BCF81146FFF77C
:10015000F7FF02F089F800F0DAF803B4FFF7F2FFD6
:1001600003BC00F0DDF8000009488047094800475B
:10017000FEE7FEE7FEE7FEE7FEE7FEE7FEE7FEE757
:10018000FEE7FEE704480549054A064B70470000B4
:10019000B10B0008CD00000880010020800700207E
:1001A000800300208003002053EA020C00F06980E5
:1001B0002DE9F04B4FF00006002B1FBFB3FA83F57B
:1001C00003FA05F424FA05F65E4012BF1643B2FAAC
:1001D00082F502FA05F4C5F120051EBF22FA05FCDE
:1001E00044EA0C04203556EA044C4FEA144418BF84
:1001F000641C4FF000084FF00009904271EB030CB3
:1002000039D3002919BFB1FA81F701FA07F6B0FA1C
:1002100080F700FA07F6C7F120071EBF20FA07FC97
:1002200046EA0C062037B6FBF4FCA7EB0507103FA7
:1002300007F01F0BCBF120060CFA0BFB2CFA06F68D
:1002400044BFB3460026202FA4BF5E464FF0000BEC
:100250005BEA060C08BF4FF0010B19EB0B09ABFB77
:10026000027C48EB0608C01B06FB02CC0BFB03CC50
:1002700071EB0C01C1E70B46024641464846BDE81A
:10028000F08B13B54FF000004FF00001AFF300808A
:10029000BDE81C40704770477047704710B500F0CC
:1002A00009F8006810BD10B5044600F003F80460BA
:1002B00010BD0000004870471C0100200048704736
:1002C0001C0100207546FFF7F9FFAE4605006946A0
:1002D000534620F00700854618B020B5FFF752FFBF
:1002E000BDE820404FF000064FF000074FF0000837
:1002F0004FF0000B21F00701AC46ACE8C009ACE8B8
:10030000C009ACE8C009ACE8C0098D46704710B51B
:100310000446AFF300802046BDE81040FFF71DBF44
:1003200001491820ABBEFEE726000200704700BF5F
:10033000FEE7000010B54FF4003001F037FEF8B1D1
:1003400017480468006817490860154804600120D0
:1003500015490870400401F023FE144800880A285B
:1003600005DC12480088401C1049088007E0002086
:100370000E490880012211460D4802F04BFF00BFD4
:100380004FF4002001F012FE40B14FF4002001F0C4
:1003900007FE0020044908700649087010BD0000DF
:1003A000500000204C000020480000205400002095
:1003B00000400140490000207047000010B501F0E6
:1003C000DBFE012001F066FE40B9084801F0B4FEF2
:1003D00000BF012001F05EFE0128FAD0102001F0DC
:1003E00059FE044601F072FE204610BD00FC0008D4
:1003F00001460878704730B503460C461546002282
:1004000004E09818FFF7F4FFA054521CAA42F8D356
:1004100030BD70B504460D4601F0AEFE012001F07E
:1004200039FE48B92946204601F018FE00BF0120D8
:1004300001F030FE0128FAD0042001F02BFE064620
:1004400001F044FE304670BD2DE9F04105460E46F0
:100450001746FFF7B3FF002404E0315D2819FFF7CA
:10046000D8FF641CBC42F8D3042001F013FEBDE8A1
:10047000F081000070B50B48806B0B49086009489B
:10048000406B0A4908600846006804F0FDFC044619
:100490000548006804F0F8FC0546214604F0F6FB28
:1004A00070BD000000400140280000202C0000200A
:1004B0002DE9F047FFF7DEFF8246504604F04CFB83
:1004C0000446144A144B04F04FF91DD2504604F070
:1004D00043FB04460F4A114B04F00CF811D250466E
:1004E00004F03AFB80460B4A0B4B04F04BFA0646ED
:1004F00000220B4B04F03AF8044603F02DFD82462F
:1005000004E04FF07E5A01E04FF0000A5046BDE88B
:10051000F08700009A9999999999A93F9999B93FBB
:100520000000344000BFFEE770B505460C46012DC3
:1005300002D0022D16D114E0012C08D1E1034FF0B6
:10054000904001F025FE01200749086008E04FF4C3
:1005500000414FF0904001F01DFE0020024908606C
:1005600000E000BF00BF70BDCC00002000BFFEE770
:1005700010B5002019490870194908700021194860
:1005800002F092FD022240F69F71164802F042FDF1
:1005900000220121144802F03DFE0021124802F021
:1005A00083FD002204210F4802F060FD0022022199
:1005B0000C4802F05BFD002211460A4802F056FD8D
:1005C00002210A4801F0E4FD0121084801F0E0FDA4
:1005D00080214FF0904001F0DBFD10BD08000020AD
:1005E00009000020002C01400004004000040048E5
:1005F00010B50E480078B8B101200D4908700020F0
:100600000C4908600C490860012211460948243849
:1006100002F000FE01210748243802F045FD0121C7
:100620000548243802F040FD10BD000008000020FD
:100630000900002024040040242C01402DE9F0474B
:1006400080460C4616461F460025174800F01CF948
:10065000404600F0DFF8FFF7CBFF1EE0605D48B9D1
:10066000002000F0D7F8304603F082FA404600F050
:10067000D1F811E0384604F007FC8246605D401E68
:100680000A4A52F82010504604F046FC814600F019
:1006900083F8304603F06CFA6D1C605DFF28DDD1F5
:1006A000FFF766FFBDE8F08700401C467053000866
:1006B0002DE9FF4F87B00C46164699460025344871
:1006C00000F0E2F8079800F0A5F8FFF791FF57E077
:1006D000605D48B9002000F09DF8304603F048FA0C
:1006E000079800F097F84AE0605D6D2837DA605DA2
:1006F000401E0C2190FBF1FAAAF1030003F0CFFE9B
:1007000002460B46CDE9000100204FF0804101F088
:10071000B1FE07468846615D491E0C2202FB1A1194
:100720001C4A52F8210004F017FA3A464346CDE934
:10073000020103F01BFFCDE9040103F00DFC834629
:100740005946484604F0E8FB8046149904F030FA14
:10075000074600F021F8304603F00AFA0FE0605D2A
:1007600078280CDA002000F055F8605D6C38B6FB94
:10077000F0F7384603F0FCF9079800F04BF86D1CD1
:10078000605DFF28A4D1FFF7F3FE0BB0BDE8F08F4A
:1007900000401C46705300082DE9F84F8246174868
:1007A000007848B31648C0F800A04FF07E510068AA
:1007B00004F07EFB03D84FF07E50114908601149C8
:1007C0000F48006804F0A8FB009004F0C5F98046CB
:1007D00042460B4600200C4903F0ACFC06460022C2
:1007E0000A4B04F0CFF8044603F02CFE8346772230
:1007F0005946074802F00EFCBDE8F88F08000020BB
:10080000180000200000F042389C9C410000F03F9E
:100810000004004070B504461648007840B31648FE
:100820000168204604F044FB0FD21448006804F02D
:100830002BFB0646214604F06FFB054604F004FB43
:100840000F4908600F48046012E00B4800680D492A
:1008500008600A48006804F017FB0646094801686A
:10086000304604F059FB054604F0EEFA04490860EE
:1008700070BD000008000020140000201C000020B3
:100880000C000020100000202DE9F05F82460120BE
:100890002649087000F042F90020254908602549E2
:1008A00008600021244802F0FFFB0021234802F0E9
:1008B000FBFB2349504604F02FFB834604F04CF920
:1008C000804642460B4600201E4903F033FC064694
:1008D00000221D4B04F056F8044603F0B3FD1B49FB
:1008E0000860022208460168144802F093FB0022C7
:1008F0000421124802F0BAFB002202210F4802F044
:10090000B5FB002211460D4802F0B0FB0221104851
:1009100001F03EFC01210E4801F03AFC80214FF02D
:10092000904001F035FCBDE8F09F00000800002079
:100930000C0000201000002000040040002C0140AA
:1009400000004040389C9C410000F03F1C0000200B
:10095000000400487047F0B503460C4603F0070159
:10096000C1F10700042801D9042001E0C1F107000A
:100970000646081D072801D2002000E0C81E0546D3
:100980000120B040401E2040A8400127AF407F1EFC
:1009900017403843F0BD0000064807490860203082
:1009A00006490860002006490860064908600649B3
:1009B00008607047D00000204C000020500000204C
:1009C000280000202C0000203000002070477047D5
:1009D00010B50B48FFF70CFD0446112C09D0FFF7AA
:1009E000EDFC1120074908700020487000F01AF84B
:1009F00005E000F00BF8034840780349086010BD9B
:100A000000FC0008100100205800002010B50A2248
:100A100002490348FFF7EFFC10BD00001001002061
:100A200000FC000810B50A2202490348FFF70CFD3C
:100A300010BD00001001002000FC00082DE9F04767
:100A400004460D4617461E46DDE9088900220421AA
:100A5000234802F00BFB00220221214802F006FB92
:100A6000002211461E4802F001FB02211D4801F040
:100A70008FFB01211B4801F08BFB80214FF0904040
:100A800001F086FB0021164802F00EFB00211648FB
:100A900002F00AFB0021154802F006FB40F69F70A9
:100AA0001349086013480460134805601348076041
:100AB0001348066000201349086013490860134971
:100AC00008601348C0F800801248C0F80090002069
:100AD00011490860FFF77CFFFFF75EFFBDE8F08774
:100AE000002C014000040048004401400020004068
:100AF0005C0000206C000020780000207C000020BA
:100B0000800000209400002064000020BC00002031
:100B10009C000020A00000206000002010B50021F3
:100B2000194802F0C1FA0021184802F0BDFA00216C
:100B3000174802F0B9FA00220421134802F096FA8D
:100B400000220221104802F091FA002211460E48BC
:100B500002F08CFA02210F4801F01AFB01210D4826
:100B600001F016FB80214FF0904001F011FB0020B6
:100B7000094908600949086009490860094908608D
:100B80000949086010BD0000002C01400010004021
:100B90000020004000040048A4000020A80000201D
:100BA00094000020640000206000002070470000D6
:100BB0003848006820F00100401C3649086000BF3A
:100BC00034480068C0F340000028F9D0314840683C
:100BD00020F003002F49486000BF2E484068C0F352
:100BE00081000028F9D12B4800682B490840294989
:100BF00008600020486041F61070C8624FF4801011
:100C000008634FF41F0088600846406940F4C02024
:100C10004861224800682249084020490860084687
:100C20000068204908431D490860081D006820F439
:100C30008270091D086019481430006820F4827021
:100C40001649143108600846006840F00400086046
:100C50004FF09040006820F070704FF090410860B5
:100C60000846006840F0A07008600846406820F41C
:100C7000C05048600846406920F4C05048610548AB
:100C8000406920F4C02003494861C8030649086050
:100C90007047000000100240FFFFF2FE0004004811
:100CA000CFFFFCFF1000010008ED00E02DE9FC5F24
:100CB0000121FE4802F00DFA002817D0FC48006818
:100CC000B0F5803F13D3FA480068A0F57F40FF38A5
:100CD000F74908600021F54802F0E6F90021F348E1
:100CE00002F0E7F90121F14802F0DEF9D9E1F0481C
:100CF000006898B10021ED4802F0D6F9EC48006890
:100D00004FF6FF72111AE94802F0D3F90020E849C2
:100D100008600121E54802F0C7F9C2E1E548006832
:100D2000D0BB0120E34908600021E04802F0BCF993
:100D300000220421E04802F099F900220221DE4855
:100D400002F094F900221146DB4802F08FF9DB48EB
:100D50000068012804D10221D94801F01BFA11E0F2
:100D6000D6480068022804D10121D54801F012FAC2
:100D700008E0D2480068032804D180214FF0904059
:100D800001F008FA4FF6F771C84802F092F9012114
:100D9000C64802F089F984E1FFE7C64800680128E7
:100DA00063D10021C14802F07FF9C648C069C0F391
:100DB0008070C549086008460068C44909688842CF
:100DC00001D1012000E00020BF490860C048006850
:100DD00008280BD20320B7490860BD4800684FF6C9
:100DE000FF72111AB14802F064F939E00220B149EA
:100DF0000860B248006801280AD10221B04801F019
:100E0000C7F9B44804210268AB4802F02FF91DE08D
:100E1000AA48006802280AD10121A94801F0B8F9BE
:100E2000AC4802210268A44802F020F90EE0A34871
:100E3000006803280AD180214FF0904001F0A8F902
:100E4000A448002102689C4802F010F9A0480068FC
:100E50004FF6FF72101A00F10801944802F029F9C8
:100E60000121924802F020F91BE192480068022813
:100E70003AD103208F49086000218C4802F014F910
:100E8000002204218C4802F0F1F8002202218A4855
:100E900002F0ECF800221146874802F0E7F8874894
:100EA0000068012804D10221854801F073F911E09E
:100EB00082480068022804D10121814801F06AF9C2
:100EC00008E07E480068032804D180214FF090405C
:100ED00001F060F94FF6F771744802F0EAF8012169
:100EE000724802F0E1F8DCE0724800680328BBD1E8
:100EF0007448C069C0F3807077490860084600688C
:100F000072490968884201D1012000E0002072493D
:100F100008606A48006801280AD10221684801F087
:100F200037F96C4804210268634802F09FF81DE01D
:100F30006248006802280AD10121614801F028F9BD
:100F40006448022102685C4802F090F80EE05B48B9
:100F5000006803280AD180214FF0904001F018F971
:100F60005C4800210268544802F080F85A48006842
:100F70005549096888427DD1584801685848006839
:100F800003F0CAFF07464FF07E5103F011FE0546FD
:100F90005448006803F078FF074653480168384614
:100FA00003F0BAFF0646294603F0B6FF044603F0F5
:100FB0002FFF82464848006801281CD14948006834
:100FC000A0EB0A0ABAF1140F01DD504600E014202C
:100FD000444908600021454802F066F84348406AE9
:100FE0008244BAF5803F01DA504601E04FF6FF70C7
:100FF0003E4948621AE03B48006882443C488245CA
:1010000001DA504600E03A48364908600021374886
:1010100002F04AF83548406AA0EB0A0ABAF1000F1C
:1010200001DB504600E000203049486201212F4892
:1010300002F03AF82B48006825490968401A08214F
:10104000C1EB50002B4908602648006803F03EFAC7
:10105000804629480CC8404603F088FA04460D46ED
:101060002448006803F032FA064622462B4602F076
:10107000A5FF00E00EE0CDE9000103F0B3F98346DF
:10108000BBF1000F01DD584601E01A48006819491C
:10109000086000BF0020074908600021034802F0F3
:1010A00003F80121014802F011F827E00020004078
:1010B0008C00002094000020002C0140C40000207F
:1010C0000004004800000140A40000209800002017
:1010D000B800002060000020A8000020BC00002014
:1010E000A0000020880000209C000020001000408C
:1010F00000E2040090000020B0000020BDE8FC9F4A
:1011000010B502211A4801F0E4FF18B10221184875
:1011100001F0DCFF0421164801F0DBFF18B10421C7
:10112000134801F0D3FF0121114801F0D2FFD0B1E3
:1011300001210F4801F0CAFF01200E49087000206C
:101140000D49087000210D4800F018FF10200B49D0
:101150005839C8650121094800F010FF002201211B
:10116000034802F057F80121014801F0AFFF10BD1C
:101170000040014049000020480000205800024083
:1011800010B50121074801F0A4FF30B10120064944
:1011900008700021034801F087FF0121014801F098
:1011A00095FF10BD004401400400002010B501214E
:1011B000414801F08EFF002879D04048007800288F
:1011C00075D03F480078062864D2DFE800F00313AA
:1011D0002434445301213B4800F0DAFF3A4804210B
:1011E00002683A4801F042FF80214FF0904000F041
:1011F000D1FF4FE000220421344801F037FF32488C
:1012000002210268314801F031FF80214FF0904007
:1012100000F0C0FF3EE080214FF0904000F0B8FFAA
:10122000294802210268294801F020FF02212548AF
:1012300000F0B0FF2EE000220221244801F016FF4A
:10124000214800210268214801F010FF02211D48B9
:1012500000F0A0FF1EE002211A4800F099FF1A4892
:1012600000210268194801F001FF0121154800F032
:1012700091FF0FE000221146144801F0F7FE1248DA
:1012800004210268114801F0F1FE01210D4800F02F
:1012900081FF00BF00BF0A480078062802D1002065
:1012A00003E004E006480078401C0549087001216D
:1012B000014801F00BFF10BD0004004008000020B1
:1012C0000A000020000400480C000020002C01400F
:1012D00010B50121F84801F0FCFE002817D0F748AE
:1012E0000068B0F5803F13D3F4480068A0F57F4054
:1012F000FF38F24908600021EF4801F0D5FE0021D7
:10130000ED4801F0D6FE0121EB4801F0CDFE02E2EE
:10131000EA48006898B10021E74801F0C5FEE748B7
:1013200000684FF6FF72111AE34801F0C2FE002078
:10133000E24908600121E04801F0B6FEEBE1E04837
:10134000006800287ED0DF480068062823D2DFE846
:1013500000F00323446486A50121DB4800F018FF58
:10136000DA4804210268DA4801F080FE0120D949F8
:10137000086080214FF0904000F00CFF0320D64918
:101380000860D648C06920F070004030D349C86179
:101390000120D3490860A1E000220421CC4801F0DB
:1013A00065FECA4802210268C94801F05FFE0220BA
:1013B000C849086080214FF0904000F0EBFE032008
:1013C000C5490860C548C06920F070006030C34955
:1013D000C8610020C249086080E080214FF0904041
:1013E00000F0D6FEB94802210268B94801F03EFE7D
:1013F0000220B84908600221B34800F0CBFE01206A
:10140000B5490860B548C06920F070005030B34954
:10141000C8610120B249086060E000220221AC48A6
:1014200001F024FEA94800210268A94801F01EFE2F
:101430000320A84908600221A34800F0ABFE012068
:10144000A54900E04BE00860A448C06920F07000A6
:101450004030A249C8610020A14908603EE0022155
:10146000994800F095FE994800210268984801F0DB
:10147000FDFD0320974908600121934800F08AFE92
:101480000220954908609548C06920F070006030DE
:101490009249C8610120924908601FE0002211466C
:1014A0008B4801F0E3FD894804210268884801F077
:1014B000DDFD0120874908600121834800F06AFEB4
:1014C0000220854908608548C06920F070005030CE
:1014D0008249C86100208249086000BFC9E079489C
:1014E0000068062823D2DFE800F00323436282A2CB
:1014F00080214FF0904000F04BFE744804210268B8
:10150000734801F0B3FD01207249086001216E4863
:1015100000F040FE0220704908607048C06920F069
:10152000700050306D49C86101206D4908609FE02E
:1015300000220421664801F099FD644800210268F8
:10154000634801F093FD03206249086001215E4871
:1015500000F020FE0220604908606048C06920F069
:10156000700060305D49C86100205D4908607FE01F
:101570000121554800F00CFE5448002102685448EF
:1015800001F074FD03205349086002214E4800F029
:1015900001FE0120504908605048C06920F07000E9
:1015A00040304E49C86101204D49086060E000228A
:1015B0001146474801F05AFD444802210268444858
:1015C00001F054FD02204349086002213E4800F02A
:1015D000E1FD0120404908604048C06920F07000EA
:1015E00050303E49C86100203D49086040E002217A
:1015F000354800F0CDFD354802210268344801F03D
:1016000035FD02203349086080214FF0904000F002
:10161000C1FD0320304908603048C06920F07000E7
:1016200060302E49C86101202D49086020E0002269
:101630000221274801F01AFD2448042102682448A9
:1016400001F014FD01202349086080214FF09040F3
:1016500000F0A0FD0320204908602048C06920F068
:10166000700040301D49C86100201D49086000BF5E
:1016700000BF14480068052801D1002002E011488D
:101680000068401C0F490860164800680B49086054
:10169000154800681549086008460068B0F5803FA5
:1016A00028D308460068A0F57F40FF380860002175
:1016B0000F4801F0FEFC28E00010004084000020EC
:1016C000580000206800002000040048600000204E
:1016D000002C0140C4000020C80000200000014090
:1016E0009800002088000020900000208C0000203E
:1016F000002000400A4800684FF6FF72111A09489E
:1017000001F0D7FC0020064908600121054801F0DE
:10171000CBFCFFF7DDFD0121034801F0D7FC10BD34
:101720008C000020002000400010004000BFFEE7B9
:10173000490050EAC12018BF04204A0D18BF40F0EC
:10174000010040F2FF72B2EB515F08BF40F00200AF
:10175000012808BF0520704702480068C0F3022036
:10176000704700000CED00E010B5002804DB0A070C
:10177000130E054A135406E00A07140E034A00F03C
:101780000F031B1FD45410BD00E400E018ED00E06F
:101790002DE9F0414F1E00EBC7010446D1E90001DD
:1017A00015461E4637F006020DD02A46334602F093
:1017B000DDFE7F1E04EBC703D3E9002302F0FEFB2E
:1017C00037F00602F1D1022F25D0042F13D0062FB7
:1017D00018BFBDE8F0812A46334602F0C7FED4E9BF
:1017E0000A2302F0EBFB2A46334602F0BFFED4E99F
:1017F000082302F0E3FB2A46334602F0B7FED4E9A1
:10180000062302F0DBFB2A46334602F0AFFED4E9A2
:10181000042302F0D3FB2A46334602F0A7FED4E9A4
:10182000022302F0CBFB2A46334602F09FFED4E9A6
:101830000023BDE8F04102F0C1BB000000221346C6
:101840001046014902F076BC0000F03F02F0B6BB42
:10185000002213461046114602F06CBC40F20132E1
:1018600000204FF0E04103F0FCBC0000024A0020E1
:10187000110703F0F6BC000001FDFFFF70470B7875
:10188000426863F3082242604B78826863F3410246
:1018900082608B78826863F3CB228260CA78521EA2
:1018A000C36A62F31753C36270470021017041702D
:1018B00081700121C1707047816821F008010831F1
:1018C0008160704701468868C0F3C00008B10120FC
:1018D00070470020FCE7816821F00401091D816048
:1018E000704701468868C0F3800008B10120704746
:1018F0000020FCE7826861F300028260704770B5E7
:1019000004460A290CDA206901EB41060725B54097
:10191000A84301EB410503FA05F5284320610FE0D8
:10192000E068A1F10A0505EB45060725B540A84387
:10193000A1F10A0505EB450503FA05F52843E0602A
:101940000D2A10DBE06AA2F10D0505EB85061F25C7
:10195000B540A843A2F10D0505EB850501FA05F593
:101960002843E0621EE0072A0EDB206BD51F05EB43
:1019700085061F25B540A843D51F05EB850501FA4F
:1019800005F5284320630DE0606B551E05EB8506C9
:101990001F25B540A843551E05EB850501FA05F541
:1019A0002843606370BD072904DD836861F35343F6
:1019B000836003E0836861F353438360836862F369
:1019C000145383607047426861F3CB2242607047D2
:1019D00001210170002141708170C170017141715C
:1019E0007047000028B9034AD26961F30002014B35
:1019F000DA6170470000014048BB0B78144AD26995
:101A000063F3C812124BDA614B78114AD26963F35F
:101A100006120F4BDA618B780D4AD26963F38302A9
:101A20000B4BDA61CB780A4AD26963F38C22084BFC
:101A3000DA610B79064AD26963F3CF32044BDA617B
:101A40004B79034AD26963F31142014BDA61704763
:101A50000000014010B500220021421000F00101F9
:101A6000054BDB6962F3D753034CE3612346DB6923
:101A700061F39653E36110BD0000014006494968D7
:101A800060F38F31044A516082080349496862F368
:101A90001C71014A516070470010024003494968B7
:101AA00060F30711014A51607047000000100240C6
:101AB0000349496860F30A21014A516070470000F8
:101AC000001002400349496860F3CD21014A51608A
:101AD0007047000000100240012807D10749496DF6
:101AE00021F030013031054A516505E00349496D67
:101AF00021F03001014A516570470000001002409A
:101B0000052827D2DFE800F0030A11181F00134A46
:101B1000126861F30002114B1A601CE00F4A126850
:101B200061F310420D4B1A6015E00C4A126861F324
:101B300018620A4B1A600EE0084A126A61F300024A
:101B4000064B1A6207E0054A526A61F30002034B32
:101B50005A6200E000BF00BF704700000010024062
:101B60002DE9F04F85B004460025AA46AB46002675
:101B7000A9460020049003900290019000F0DAF949
:101B80000090009820B1012812D0022875D112E0EF
:101B90005648406DC0F3402038B15448006BC0F344
:101BA000406010B15248206001E05248206067E078
:101BB0005048206064E04D484068C0F3004B4B48FB
:101BC000C06AC00F30BB49484068C0F383454748EE
:101BD0004068C0F3417ABAF1000F01D10F2D04D152
:101BE0004FEA0A10401C054400E0AD1CBBF1000F99
:101BF00003D14148684320603DE03C484068C0F361
:101C0000404018B13C486843206034E0394868439C
:101C1000206030E03548C06AC0F3031003903348B9
:101C2000C06AC0F3082002903048C06A00F0070084
:101C30000190BBF1000F02D12F48049009E02B481E
:101C40004068C0F3404010B12B48049001E029489F
:101C500004900121019801FA00F0039900FB01FCB6
:101C600002990498A0FB01700146624600233846A1
:101C7000FEF79AFA206003E0FFE71E48206000BFED
:101C800000BF1A484068C0F303161C4810F80690BD
:101C9000206820FA09F0606014484068C0F302260A
:101CA000174810F80690606820FA09F0E0600F48C5
:101CB0004068C0F3C226134810F80690606820FA06
:101CC00009F0A06009484068C0F300760748406802
:101CD000C0F3813040EA86060B4810F80690A068F1
:101CE000B0FBF9F0206105B0BDE8F08F00100240B4
:101CF000006CDC0200127A0000093D00505500081B
:101D000060550008685500087055000810B5014678
:101D10000020094B03EB1142126801F01F0401235C
:101D2000A3401A4001F01F040123A3409A4200D0AF
:101D300000E0012010BD00000010024010B5012994
:101D40000DD10E4B03EB1042126800F01F0401236B
:101D5000A3401A43094C04EB10431A600CE0074BF4
:101D600003EB1042126800F01F040123A3409A43C2
:101D7000024C04EB10431A6010BD0000001002403A
:101D800030B502460020002372B9354C646824F453
:101D90008034334D6C6033482C46246B24F000743F
:101DA00004F100742C6319E02D4C646824F4803431
:101DB00004F580342A4D6C60012A06D12A482C464D
:101DC000646824F400346C6008E02648244C64689D
:101DD00024F4003404F50034214D6C60234CA042FF
:101DE00004D9234CA04201D2002326E0214CA0427A
:101DF00004D9214CA04201D201231EE01F4CA04275
:101E000004D91F4CA04201D2022316E01C4CA04270
:101E100004D91C4CA04201D203230EE01A4CA0426C
:101E200004D91A4CA04201D2042306E0174CA04268
:101E300003D9174CA04200D20523094C646861F312
:101E40009544074D6C600D09054C646865F35E743C
:101E5000034D6C602C46E46A63F31A64EC6230BD97
:101E60000010024000093D0000127A0060823B0031
:101E7000404B4C0080584F00105E5F009435770057
:101E8000101B7F0020BCBE00286BEE0030D73D0148
:101E9000D8E9DC011648006820F00100401C144914
:101EA000086000BF12480068C0F340000028F9D065
:101EB0000F48406820F003000D49486000BF0C48FF
:101EC0004068C0F381000028F9D109480068094939
:101ED0000840074908600020486041F61070C86259
:101EE0004FF4801008634FF41F00886070470000B3
:101EF00000100240FFFFF2FE0D49496860F3010146
:101F00000B4A516000BF00BF00BF00BF00BF00BF51
:101F100000BF00BF00BF00BF00BF00BF00BF00BFC9
:101F200000BF00BF00BF00BF00BF00BF7047000080
:101F30000010024002484068C0F381007047000072
:101F40000010024030B502460B4D2D6802FB05F330
:101F50004FF0E025A96900BF4FF0E025A86988424D
:101F600001D80D1A04E06FF07F452D1A0D446D1C49
:101F70002C469C42F0D330BD00000020026861F383
:101F800000020260704700210160416001814181CF
:101F9000017341738173C173017441747047000010
:101FA00001494860704700000000024001460020DF
:101FB0000022044B1A6802EA01030BB1012000E081
:101FC000002070470000024002684BF6EF731A4091
:101FD000026002680B891A4302604B7C026863F35B
:101FE0000D320260CB7B026863F38B2202608B7B35
:101FF000026863F3092202604B7B026863F3C71235
:1020000002600B7B026863F3861202600B7C02683D
:1020100063F3451202604A8942600A6882604A6836
:10202000C26070470021026822F0010202600022B3
:10203000026042608260C2600146CAB2083A14235C
:10204000B2FBF3F293000F229A40034B5B681A43F2
:10205000014B5A60704700000000024070B5044612
:102060000D4603260A48006920F00100401C08497B
:10207000086125704FF4801000F04CF806460448C3
:10208000006920F0010002490861304670BD00007F
:10209000002002400146002001F0E04221F0E04132
:1020A0001AB1B2F1804F0CD105E0074BDB680B4051
:1020B00003B1012006E0044BDB690B4003B10120B2
:1020C00000E000BF00BF70470020024003480069E5
:1020D00020F08000803001490861704700200240F4
:1020E00003200B49C96801F0010109B100200EE08D
:1020F0000749C968C1F3800109B1012007E004491B
:10210000C968C1F3001109B1022000E00320704743
:102110000020024000B502460323FFF7E1FF03461B
:1021200003E0FFF7DDFF0346521E0BB9002AF8D18A
:1021300002B90423184600BD30B5044603250D48F6
:10214000006920F00200801C0A49086108464461C9
:10215000006920F04000403008614804FFF7DAFFD2
:1021600005460448006920F002000249086128463B
:1021700030BD000000200240024803494860034887
:10218000486070472301674500200240AB89EFCDCE
:1021900081627047816170474FF6FF7101600021D5
:1021A0008171017141710121C171704770B50A4699
:1021B00000211488A3B233E003F001046CB3046877
:1021C0004E000325B540AC43046094794D00AC400B
:1021D00005682C430460446801258D40AC4344608D
:1021E000446815798D402C43446084684E00032573
:1021F000B540AC438460D4794D00AC4085682C4335
:102200008460C4684E000325B540AC43C460547973
:102210004D00AC40C5682C43C4605B104C1CA1B29F
:10222000002BC9DC70BDF0B5002300244D07ED0E76
:1022300002FA05F3CD105DB1456A4E07F70E0F2681
:10224000BE40B5434562456A45EA030444620AE07C
:10225000056A4E07F70E0F26BE40B5430562056AB4
:1022600045EA03040462F0BD1CB500BF00243B4DE9
:102270003B4E00BFFFF702FB01F082FB01F03AFB8F
:1022800001F0BAFA01F0C4FB01F04EFA01F012FEBF
:1022900001F0EEF901F0A2F901F06AFA01F0C4FCD4
:1022A00001F0CCFD01F0ECFD01F0D4FB01F0ECFB02
:1022B00001F092FC4FF47A7001F021FA294D274881
:1022C0002949642344F25062CDE9001044F62061AC
:1022D0002846FEF7B3FB4FF4967001F010FA042382
:1022E000224A23492846FEF7A9F901210846FEF7AC
:1022F0001BF90BE0FEF7DCF804460A2001F0FFF9B9
:102300003146204602F0D4FD00D800E0F2E700BFDD
:1023100022E0FEF7CDF804462946204602F0C8FE2A
:102320000ED829461348006802F0F4FE8046214684
:1023300002F0F2FD0746294602F03AFC044600E0AE
:10234000002400200C4B0D4A0D4900900548FEF773
:10235000AFF9022001F0D3F9DBE70000CDCC4C3D12
:102360008FC2F53CCDCCCC3D0AD7233C305705007D
:10237000685300087000002000008A4290D00300DB
:10238000EE5200082DE9F0470B4614464FF0000CC2
:1023900000BF2C4A1268C2F302211D4626460A4697
:1023A000C2F10709B9F1040F02D94FF0040901E0A5
:1023B000C2F10709C84602F10409B9F1070F02D2B8
:1023C0004FF0000901E0A2F103094F464FF0010967
:1023D00009FA08F9A9F1010909EA050909FA07F951
:1023E0004FF0010A0AFA07FAAAF1010A0AEA060AF4
:1023F00049EA0A09CC4601466246002904DB150772
:102400002E0E114D6E5407E015072F0E0D4D0C3595
:1024100001F00F06361FAF5500BF014600290DDB46
:1024200000BF00BF01F01F050122AA404D09AD0009
:1024300005F1E025C5F8002100BF00BF00BFBDE8E1
:10244000F08700000CED00E000E400E000BF00F0C9
:102450000702064B19684FF6FF031940044B0B4364
:1024600043EA0221014B196000BF70470CED00E008
:102470000000FA052DE9F04D1D460C4698B01746B0
:1024800021F0004123F00043002814BF4FF0010C5D
:102490004FF0000C0CEB440CFE4A0CEB02064FEA2A
:1024A000620C66452BD33E0018BF012606EB45069D
:1024B0001644F94A964222D3F84A53EA070C02D04E
:1024C000944205D148B918B000201146BDE8F08DFE
:1024D000002808BF4FF0000C01D04FF0010C0CEBAE
:1024E000440212F5001F0AD8002F14BF4FF0010C50
:1024F0004FF0000C0CEB450212F5001F07D918B085
:102500003A462B462146BDE8F04DFFF79FB9002221
:10251000DFF88CA3002CB8BF534526DADFF884C35C
:102520006345A8BF022220DADFF870C39C451CDC9B
:10253000DFF874C30CEB235CBCF1140F08DDCCF1A5
:10254000340627FA06FC0CFA06F6BE420DD108E066
:102550005FB9CCF1140623FA06FC0CFA06F69E428B
:1025600003D10CF00102C2F1020251EA000C19D1B0
:10257000002D17DA002C18BF022A01D0012A07D03B
:102580000220FDF790FE18B0BDE8F04DFFF756B9F8
:102590000220FDF788FEFFF751F918B081F00041E5
:1025A000BDE8F08DB7F1000C6CD1534525D104F195
:1025B000804212F5801201BF00280020B74918B0F0
:1025C00008BFBDE8F08DB548884207DC002DA1BFEB
:1025D0006046294618B0BDE8F08D07E0281E05DAF0
:1025E00080F0004118B06046BDE8F08DAF497944F5
:1025F000D1E9000118B0BDE8F08DDFF8A0C2634555
:1026000025D1002D1FDA19B1514512D1D8B909E0F1
:10261000002840F0EC82A24A214618B062F31E0165
:10262000BDE8F08D0020214618B060F31E01BDE822
:10263000F08D08DA18B02346BDE8F04D02460020C0
:10264000614601F077BD18B02146BDE8F08D5145D7
:1026500018DAB5F1804F0DD0A5F1005CBCF1FF5C3C
:1026600010D1B4F1000C0DDB18B06146BDE8F04D9F
:1026700000F0ECBB234618B00246BDE8F04D194609
:1026800001F074BF060024F0004C3BD1D9B1514594
:1026900033D1002C06DD002DA1BF0020514618B01B
:1026A000BDE8F08D002C01DD002D1BDB002C13DAC2
:1026B000002D11DB012A4FF0000014BF78497C493E
:1026C00018B0BDE8F08D022A18BF002C0AD0012AEC
:1026D00008D1002C06DA0AE0002CB8BF002D11DA70
:1026E000012A04D0002018B00146BDE8F08D18B0D2
:1026F00000204FF00041BDE8F08DA1F14050B0F155
:102700007F601AD0012000EBE47050EA020421D06F
:10271000624C521E4FF0000B104304BF4FF0000BF1
:10272000644C654883427CDD644A654893421FDD02
:10273000884217DB002D25DB37E0002C00DA4AB198
:10274000022A0CBF01204FF0FF3018B0BDE8F04D59
:1027500001F0A5BE0120FDF7A6FD18B0BDE8F04DC3
:10276000FFF776B84D4A8A4202DC002D0ADC1CE0F5
:10277000814202DA002D18DA04E0484B994220DD4C
:10278000002D12DD0220FDF78EFDFFF767F80546EC
:102790000E46002253465846214601F0E7FE18B087
:1027A00066F31E012846BDE8F08D0220FDF77BFD93
:1027B000FFF75CF80A46214618B062F31E01BDE837
:1027C000F08D00223046614602F0DCF880460E466D
:1027D0006FF0010202F045FD4FF05532394B01F028
:1027E000F9FF4246334601F0C1FE0022364B01F0AC
:1027F000F1FF82464246334604911046194601F0E5
:10280000B5FE5246049B01F0B1FE8A4600904FF09F
:10281000C0422E4B4046314601F0A8FE2C4A2B4BBD
:1028200000E027E0CDE906015146009801F09EFE48
:1028300082460191274A284B4046314601F096FED8
:102840005246019B02F09EF882460B4602460591D5
:10285000DDE9060101F0B2FBDDE90623002688462A
:10286000304602F08FF85246059B01F0B3FF024656
:1028700000F07EB90020B1F5801F07DA352230461E
:10288000614602F0EEFC06466FF0340000EB21508A
:1028900024E00000FFFF1F00FFFF0F000000F03FDB
:1028A0000000F07F0000404301FCFFFF1E300000ED
:1028B0000000F0FF0000F0BF0000E0410000F04326
:1028C000FFFFEF3F5555D53F0000E03F4715F73F6D
:1028D000FE822B6544DF5DF80BAE543EA0F2FF3064
:1028E0000190C1F3130040F07F6141F0405102912B
:1028F000FE498842D8BF002004DDFD498142C8BF9F
:10290000012001DD0D9008E000200D900198401C91
:1029100001900298A0F5801002900299F548784441
:102920000B910D9900EBC100D0E900230F933046C5
:102930000A920B9902F026F8CDE90601DDE90A2199
:1029400030460F9B01F03AFB02460B460020EA4955
:1029500001F0F0FB059102460B460090DDE906010F
:1029600001F004FE1490E5488A464FF000087844D0
:102970000299006812904FF0005040EA61010D98F2
:102980000F9B01EB804000F5002109910A9A1298F3
:1029900001F0F8FF32460B9B01F01CFF4246534604
:1029A00001F0E4FD0646029140465146099B129A09
:1029B00001F0DCFDDDE9062301F00CFF3246029B4D
:1029C00001F0E0FF059B009A01F0D0FD0091149A00
:1029D000049053461046194601F0C8FD06460246CB
:1029E000C7480B46029106217844FEF7D1FECDE997
:1029F0000510029B32461046194601F0B7FDDDE98D
:102A0000053201F0B3FD059106465346404619468E
:102A1000149A01F0D3FA009B049A01F0A7FD324604
:102A2000059B01F0CBFACDE905104246534610460E
:102A3000194601F09BFD0022B24B02910A9001F071
:102A4000BDFADDE9053201F0B9FA0E464246AD4B5A
:102A5000404601F097FF029B0A9A01F093FFDDE9DF
:102A6000053201F0B7FE424602910A903346104605
:102A7000514601F07BFDCDE906015346149A0299B7
:102A80000A9801F073FD8A46029033464246009947
:102A9000049801F06BFD5346029A01F08FFA8246CA
:102AA0000B4602460591DDE9060101F087FADDE9F2
:102AB000062300208846064601F064FF5246059B27
:102AC00001F088FE824609914FF060428E4B3046FD
:102AD000414601F04BFD049006918C4A8A4B5046CA
:102AE000099901F043FD82460291894A894B30469B
:102AF000414601F03BFD5246029B01F05FFA864BD6
:102B00007B440D9A03EBC203D3E9002301F056FA8C
:102B10000E900791019801F0C2FC0591DDE90613C2
:102B200082460E9A049801F049FA7C4A7A440D9B39
:102B300002EBC303D3E900230093029201F03EFAB3
:102B40005246059B01F03AFA002688465246304626
:102B5000059B01F017FF009B029A01F013FF069BF3
:102B6000049A01F00FFF079B0E9A01F033FE024614
:102B700000200B4602903846294601F0F7FC8246B9
:102B800001912B4638461946029A01F0FBFE324667
:102B9000434601F0EBFC5246019B01F00FFA074659
:102BA0008A46324643462946029801F0DFFC054634
:102BB0000E463A46534601F001FA594A8846914278
:102BC00021DBA8EB020353EA000210D12A46334668
:102BD00001F0D8FECDE90401524A534B3846514624
:102BE00001F0ECF9DDE9042301F0BEFD21D2022061
:102BF000FDF759FBFEF732FE0A46214618B062F394
:102C00001E01BDE8F08D494B28F000429A4210D3D6
:102C1000474A08EB020353EA00027FF4C6AD2A4696
:102C2000334601F0AFFE3A46534601F09DFD7FF674
:102C3000BCAD0022019228F000403E493E4A01EB23
:102C40002051824223DA481C4FF4801121FA00F00F
:102C500040443A4AC0F30A517A44394BA1F2FF3159
:102C6000CB4020EA0303C0F3130040F48010C1F10D
:102C70001401C84012680190B8F1000FBCBF404277
:102C800001902846314601F07DFE05460E462A4653
:102C900033463846514601F091F94FF0000842465C
:102CA000284B4046059101F061FCCDE90601264A1A
:102CB000264B4046059901F059FC009102902A46A6
:102CC00033464046059901F05DFE3A46534601F011
:102CD00081FD1F4A1F4B01F049FC009B029A01F045
:102CE0006DF90746884602460B4635E08E9803008C
:102CF0007AB60B00662C00000000F03F9E2C00000E
:102D0000CC2B00000000084009C7EE3FFD033ADC71
:102D1000F5015B14E02F3EBEA42A0000682A0000E3
:102D200000009040FE822B654715973C00CC9040F8
:102D300000346F3F01FCFFFF0000E03FB4290000BA
:102D4000FFFF0F00432EE63F396CA80C615C20BEEC
:102D5000EF39FAFE422EE63FDDE9060101F02EF9D9
:102D6000DDE9062305460E4601F00CFE3A464346D1
:102D700001F030FD0F462A463346009010461946B2
:102D800001F0F4FB824602462E4888460B46052198
:102D90007844FEF7FDFC5246434601F0E7FB2A4625
:102DA000334601F017FD80468A463B4628463146A9
:102DB000009A01F0DBFB3B46009A01F0FFF8069118
:102DC000009000224FF080434046514601F0DAFD6A
:102DD0000F460C90424653462846314601F0C6FB4A
:102DE0003B460C9A01F0A6F9069B009A01F0CAFD39
:102DF0002A46334601F0C6FD0022134B01F0EAFCDF
:102E0000054601980E4601EB00510815002810DC1C
:102E100028463146019A02F024FAFEF789FC04287C
:102E200008BFFEF723FD28463146019A02F019FA41
:102E300005460B4618B02A4658462146BDE8F04DD7
:102E400001F094BB542800000000F03F2DE9F04150
:102E500006460F4601F0CAFC041E0D4618BF0120AD
:102E6000284320F00040C0F17F6000F1E040C00F37
:102E70000ED0301C18BF0120384320F00040C0F1B4
:102E80007F6000F1E040C00F04BF0120FDF70BFAA6
:102E900020462946BDE8F0812DE9FF5F002400258A
:102EA0000026A146A246A34600200390029001906E
:102EB000FFF740F80090009820B1012814D00228B4
:102EC00074D115E04348406DC0F3402040B1414803
:102ED000006BC0F3406018B13F484049086002E011
:102EE0003F483E49086065E03D483C49086061E074
:102EF00038484068C0F300463648C06AC00F20BB5F
:102F000034484068C0F3834432484068C0F3417598
:102F10000DB90F2C03D12801401C044400E0A41C6F
:102F200026B9304860432D4908603DE02948406893
:102F3000C0F3404020B12B4860432849086033E08B
:102F400027486043254908602EE02248C06AC0F344
:102F5000031003901F48C06AC0F3082002901D4868
:102F6000C06A00F00700019016B9DFF878B009E0F8
:102F700018484068C0F3404010B1DFF868B001E085
:102F8000DFF85CB00121019801FA00F0039900FB21
:102F900001FC0298ABFB00700146624600233846F4
:102FA000FDF702F90D49086004E0FFE70C480B4902
:102FB000086000BF00BF07484068C0F303190A4813
:102FC00010F809A00548006820FA0AF003490860D3
:102FD000BDE8FF9F00100240006CDC0220000020D2
:102FE00000127A0000093D0078550008042808D135
:102FF0004FF0E021096941F004014FF0E022116136
:1030000007E04FF0E021096921F004014FF0E022D0
:1030100011617047C1628262436923F001035B1C46
:10302000436170478B79426C63F30C3242640B78D6
:10303000426C63F3070242644B79426C63F38A2269
:1030400042640B79426C63F3CB2242644B78426C4E
:1030500063F34D324264CB78426C63F38E32426448
:103060008B78426C63F30922426470470B4633B19C
:10307000022B06D0042B06D0062B08D105E04263B4
:1030800006E0826304E0C26302E0026400E000BF85
:1030900000BF7047026861F309220260704702684E
:1030A00061F3061202607047026861F30002026079
:1030B000704741627047012A03D1C3680B43C36064
:1030C00003E012B9C3688B43C3607047CA4302610F
:1030D00070470246002013690B400BB1012000E04D
:1030E0000020704730B500230B7833B1022B27D076
:1030F000042B48D0062B7DD169E0046A24F001043A
:1031000004624D78046A65F3410404624C786508F2
:10311000046A65F3C30404628D78846965F301046D
:103120008461CD78846965F307148461846962F3EE
:1031300083048461046A24F00104641C046267E06F
:10314000046A24F0100404624D78046A65F345149F
:1031500004624C786508046A65F3C71404628D78CC
:10316000846965F309248461CD78846965F30F343B
:103170008461846962F38B248461046A24F01004FE
:103180001034046244E0046A24F4807404624D78CC
:10319000046A65F3492404624C786508046A65F39F
:1031A000CB2404628D78C46965F30104C461CD78D1
:1031B000C46965F30714C461C46962F38304C4611C
:1031C000046A24F4807404F58074046220E0046AC4
:1031D00024F4805404624D78046A65F34D3404622B
:1031E0008D78C46965F30924C461CD78C46965F339
:1031F0000F3400E00BE0C461C46962F38B24C46146
:10320000046A24F4805404F58054046200E000BF92
:1032100000BF30BD012A03D1C3680B43C36003E084
:1032200012B9C3688B43C360704710B50B4633B106
:10323000022B09D0042B0CD0062B14D10EE084698C
:1032400062F3C30484610FE0846962F3CB24846178
:103250000AE0C46962F3C304C46105E0C46962F3AF
:10326000CB24C46100E000BF00BF10BD2DE9F041D8
:1032700000250026002701F108035C1C92F801C01C
:103280000CFA03FC1FFA8CF592F802C00CFA04FC4D
:103290001FFA8CF6D0F804C04FF0010808FA04F8C1
:1032A0002CEA080CC0F804C0D0F804C04CEA060CA4
:1032B000C0F804C0D0F804C04FF0010808FA03F8C1
:1032C0002CEA080CC0F804C0D0F804C04CEA050C85
:1032D000C0F804C00F4637B1022F0DD0042F14D010
:1032E000062F24D11AE092F80080D0F818C068F3B5
:1032F000061CC0F818C01BE092F80080D0F818C077
:1033000068F30E3CC0F818C012E092F80080D0F8C4
:103310001CC068F3061CC0F81CC009E092F80080CD
:10332000D0F81CC068F30E3CC0F81CC000E000BF21
:1033300000BF4FF0010C0CEB41034FF0030C0CEB02
:10334000410492F803C00CFA03FC1FFA8CF592F8C2
:1033500004C00CFA04FC1FFA8CF64FF0010808FABE
:1033600004F8D0F820C02CEA080CC0F820C0D0F82F
:1033700020C04CEA060CC0F820C04FF0010C0CFA3B
:1033800003FCD0F8208028EA0C08C0F82080D0F890
:1033900020C04CEA050CC0F820C04B004FF0020CD6
:1033A0000CEB410492F805C04FEA41080CFA08FC06
:1033B0001FFA8CF592F806C04FF0020808EB41089E
:1033C0000CFA08FC1FFA8CF64FF0010808FA04F812
:1033D000D0F820C02CEA080CC0F820C0D0F820C0DB
:1033E0004CEA060CC0F820C04FF0010808FA03F8B8
:1033F000D0F820C02CEA080CC0F820C0D0F820C0BB
:103400004CEA050CC0F820C0BDE8F08110B50B46B1
:1034100033B1022B09D0042B0CD0062B14D10EE0B3
:10342000846962F3820484610FE0846962F38A2410
:1034300084610AE0C46962F38204C46105E0C4697E
:1034400062F38A24C46100E000BF00BF10BD426C7B
:1034500061F3CF3242647047026861F38202026016
:103460007047026861F3C71202607047426861F3F7
:10347000061242607047026B61F3070202637047F5
:10348000826861F3020282607047826861F3C7124A
:1034900082607047826861F3061282607047C2687A
:1034A00061F34D32C260704741B9426922F48072C3
:1034B0004261426922F40072426127E001290AD187
:1034C000426922F4807202F580724261426922F4FC
:1034D000007242611AE002290AD1426922F4807224
:1034E0004261426922F4007202F5007242610DE00D
:1034F00003290BD1426922F4807202F58072426185
:10350000426922F4007202F50072426170470000C5
:103510002DE9F04385B004460F469046994668462B
:10352000FEF71EFB1448844201D1029E00E0039E78
:1035300006EB86004000B0FBF7F50A20B5FBF0F182
:1035400000FB1150052803D20A20B5FBF0F503E07B
:103550000A20B5FBF0F0451CA06865F30F00A060E1
:10356000E06868F30C30E060206969F30D30206199
:1035700005B0BDE8F08300000038014041B9C268E1
:1035800022F40072C260C26822F48062C2601AE053
:1035900001290AD1C26822F40072C260C26822F412
:1035A000806202F58062C2600DE002290BD1C26820
:1035B00022F4007202F50072C260C26822F48062D6
:1035C00002F58062C2607047C26861F38202C26025
:1035D0007047C26861F3C302C26070470EB501A8AC
:1035E000FEF7DAFD03208DF80A000820019001A9FA
:1035F0004FF09040FEF7DAFD0220FEF73FFA6846F2
:10360000FEF753F900208DF800008DF801008DF8C9
:10361000020001208DF8030069461448FEF72FF9D7
:103620000323012219461148FEF769F901220721F7
:103630000E48FEF7B8F900210C48FEF7C4F9012145
:103640000A48FEF757F90948FEF736F900BF074860
:10365000FEF738F90028FAD10448FEF73CF900BF1C
:103660000248FEF73EF90028FAD10EBD00240140C1
:103670001FB502A8FEF790FD0220029003208DF8EE
:103680000E0000208DF80C008DF80D0001208DF843
:103690000F0002A94FF09040FEF788FD0120029034
:1036A00003208DF80E0000208DF80C008DF80D0021
:1036B00001208DF80F0002A94FF09040FEF776FD33
:1036C0006846FEF785F901208DF8000006208DF888
:1036D000010000208DF8030001208DF80400002077
:1036E0008DF802008DF805006946FEF785F9012185
:1036F0000020FEF777F90320FEF7ACF91FBD10B5E7
:1037000004460EE0322C05D94CF25030FEF71AFC7C
:10371000323C06E04FF47A7104FB01F0FEF712FC34
:103720000024002CEED110BD00B585B00F48FEF787
:1037300079FC6846FEF727FC0020ADF80800012060
:103740008DF80F008DF80D008DF80E0000208DF81B
:103750000C0002208DF8110001208DF81000694640
:103760000248FEF731FC05B000BD000058000240E1
:103770001CB56846FEF710FD48F280014FF09040FE
:10378000FEF706FD23211B48FEF702FD02208DF8FF
:10379000070000208DF8040001208DF8060048F293
:1037A0008000009000208DF8050069464FF09040A1
:1037B000FEF7FCFC02208DF8070000208DF80400C5
:1037C00001208DF806002320009000208DF80500D0
:1037D00069460848FEF7EAFC03208DF80600302011
:1037E000009000208DF8050069464FF09040FEF7EC
:1037F000DDFC1CBD0004004870B50520FEF726FE68
:10380000FDF7AAFF054600221146FDF7A4F804467D
:1038100021466FF00B00FDF7A7FFFDF79DFF054662
:1038200000221146FDF797F8044621466FF00A0082
:10383000FDF79AFFFDF790FF054600221146FDF7C0
:103840008AF8044621466FF00900FDF78DFFFDF769
:1038500083FF054600221146FDF77DF80446214608
:103860006FF00400FDF780FFFDF776FF05460022AC
:103870001146FDF770F8044621466FF00300FDF78E
:1038800073FFFDF769FF054600221146FDF763F857
:10389000044621466FF00100FDF766FFFDF75CFF6F
:1038A000054603221146FDF756F8044621464FF01F
:1038B000FF30FDF759FF002211460B20FEF762FD95
:1038C000002211461020FEF75DFD01221146112055
:1038D000FEF758FD002211461320FEF753FD00228B
:1038E00011461420FEF74EFD002211461520FEF76A
:1038F00049FD70BD10B501214FF4A010FEF71EFA6E
:1039000001211C48FEF71AFA01211A48401CFEF753
:1039100015FA01214FF4C010FEF710FA01214FF4FF
:10392000C010FEF70BFA01211348FEF707FA012138
:103930001148801CFEF702FA01210F48401DFEF7D6
:10394000FDF901210C48C01DFEF7F8F901210A48D4
:103950000830FEF7F3F901210848FEF7EFF90121DD
:103960000648C01CFEF7EAF901210448C01DFEF715
:10397000E5F910BD110014000900180001001C0039
:1039800010B5FEF787FA40F253101F490860012175
:103990000420FEF7B5F800BF1C48FEF7B7F9012870
:1039A000FAD101210020FEF7ABF800BF0120FEF79D
:1039B000ADF90128FAD11D210020FEF7E1F901211E
:1039C0000220FEF79DF800BF1920FEF79FF901289D
:1039D000FAD10020FEF762F80020FEF773F800200D
:1039E000FEF766F80120FEF777F80220FEF784FA6A
:1039F00000BFFEF79FFA0228FBD10020FEF76CF80B
:103A0000FFF74AFA10BD0000002002400100240028
:103A100010B586B0002401A8FEF7A2F80298C408E9
:103A20000020FFF7E3FA0948B4FBF0F0084908600A
:103A300000204FF0E02188616FF07F404861084628
:103A4000006940F00100086106B010BD40420F005F
:103A50000000002010B500210A48FFF720FB0021DC
:103A60000848FFF717FB00210648FFF7FAFC1D2264
:103A70004FF6FF710348FFF7CDFA01210148FFF728
:103A800013FB10BD002000400EB501A8FEF784FB1B
:103A9000002202214FF09040FEF7C5FB0420019068
:103AA00002208DF80A0000208DF808008DF809002A
:103AB00002208DF80B0001A94FF09040FEF776FB35
:103AC00000212A48FFF7EBFA00212848FFF7E2FA25
:103AD00000212648FFF7CFFC00212448FFF7C1FC56
:103AE00077224FF6FF712148FFF794FA00211F4813
:103AF000FFF7CBFC00211D48FFF7B8FC04211B4851
:103B0000FFF7BEFC01211948FFF7A6FC0521174865
:103B1000FFF7C0FC00208DF8000001208DF80200A6
:103B200000208DF8010001208DF803000022694675
:103B30000E48FFF7D7FA02208DF800008DF802003A
:103B400001208DF8010000208DF803000022694655
:103B50000648FFF7C7FA012291020448FFF7ABFAC3
:103B600001210248FFF7A0FA0EBD0000004001400D
:103B700010B5044628E0B4F5803F12D3A4F57F4485
:103B8000FF3C0020124908701249086001211148C9
:103B90002438FFF789FA00BF0D4800780028FBD0D1
:103BA00012E04FF6FF70001B0A4908600024002055
:103BB00007490870012107482438FFF775FA00BF4C
:103BC000034800780028FBD0002CD4D110BD0000A1
:103BD000040000202444014010B500211148FFF7E3
:103BE0005EFA00210F48FFF755FA00210D48FFF754
:103BF00042FC00210B48FFF734FC77224FF6FF719F
:103C00000848FFF707FA01210648FFF74DFA00219F
:103C10000448FFF749FA012211460248FFF7FAFA71
:103C200010BD00000044014000B587B005A8FEF7B4
:103C3000B3FA022208214FF09040FEF7F4FA4FF455
:103C40008070059002208DF81A0000208DF8180071
:103C50008DF8190002208DF81B0005A94FF0904047
:103C6000FEF7A4FA02220921C806FEF7DCFA4FF497
:103C70000070059002208DF81A0000208DF81800C1
:103C80008DF8190002208DF81B0005A94FF0904017
:103C9000FEF78CFA02220A214FF09040FEF7C3FA99
:103CA0004FF48060059002208DF81A0000208DF8F6
:103CB00018008DF8190002208DF81B0005A94FF09F
:103CC0009040FEF773FA00215B48FFF7E8F9002106
:103CD0005948FFF7DFF900215748FFF7CCFB0021D7
:103CE0005548FFF7BEFB022240F69F715248FFF78E
:103CF00091F900215048FFF7C8FB00214E48FFF71B
:103D0000B5FB06208DF80C0001208DF81100002075
:103D10008DF812008DF80F008DF810008DF80D0051
:103D20008DF80E0003AA00214348FFF79FFA0022F6
:103D300011464148FFF79AF9002211463E48FFF725
:103D400074FA002211463C48FFF760FB06208DF80C
:103D50000C0001208DF8110000208DF812008DF864
:103D60000F008DF810008DF80D008DF80E0003AADD
:103D700002213148FFF77AFA002202212E48FFF78C
:103D800075F9002202212C48FFF74FFA0022022188
:103D90002948FFF73BFB06208DF80C0001208DF829
:103DA000110000208DF812008DF80F008DF8100022
:103DB0008DF80D008DF80E0003AA04211E48FFF7B0
:103DC00055FA002204211C48FFF750F90022042173
:103DD0001948FFF72AFA002204211748FFF716FBBB
:103DE00000208DF80A008DF807008DF805008DF889
:103DF00008008DF809008DF806008DF8040001A96F
:103E00000D48FFF70FF901210B48FFF720FB0121B7
:103E10000948FFF749F900210748FFF745F9022251
:103E200040F69F710448FFF7F5F801210248FFF7BB
:103E30003BF907B000BD0000002C014010B5002187
:103E40000E48FFF72CF900210C48FFF723F9002159
:103E50000A48FFF706FB77224FF6FF710748FFF786
:103E6000D9F800210548FFF710FB00210348FFF7B0
:103E7000FDFA01210148FFF717F910BD00040040C9
:103E800010B500210A48FFF70AF900210848FFF79A
:103E9000E8FA1D224FF6FF710548FFF7BBF8002135
:103EA0000348FFF7E3FA01210148FFF7FDF810BDD1
:103EB000001000401CB56846FEF76EF9002206218E
:103EC0002348FEF7B0F902208DF8070000208DF896
:103ED000040002208DF806004020009000208DF89C
:103EE000050069461A48FEF761F9002207211848C3
:103EF000FEF799F902208DF8070000208DF80400E4
:103F000002208DF806008020009000208DF805002A
:103F100069460F48FEF74AF900231A464FF4E1318B
:103F20000C48FFF7F5FA01210A48FFF752FB01217F
:103F30000848FFF749FB00210648FFF71FFB002157
:103F40000448FFF7B1FA01210248FFF7A8FA1CBDA7
:103F5000000400480038014021F00042A2F1605204
:103F6000B2F5801F01F0004328BFD2F17F6C0BD95E
:103F70005FEA001C43EAC20242EB507018BF704770
:103F800028BF20F001007047B2F5801FBCBF184663
:103F900070474FEA410C1CF5001F02D2084601F0A1
:103FA00082B870B500F08CFB00000089FFF7F6BF07
:103FB0004FF00040A0F580007047000010B591EA76
:103FC000030F48BF83F0004300F1E484841A71EBCF
:103FD000030C05D2121943EB0C03001B61EB0C011F
:103FE000DFF824E14FEA1154A4EB135C1EEA430FFF
:103FF00018BF9EEA445F73D023EA0E03DCF1200E63
:1040000021EA045143F4801332D322FA0CFE10EB60
:104010000E0023FA0CFE41EB0E01CCF1200E03FA48
:104020000EFE10EB0E0051F10001B1F5801FCCF136
:10403000200E32D201EB045112FA0EF2BDE810400C
:1040400058BF7047401C38BF5FEA420218BF704734
:10405000002814BF20F0010041F100014FEA4103A4
:1040600013F5001F38BF7047A1F1C04100F076BBC7
:10407000012A43EB0302ACF1200CDCF11F0E32BF2E
:104080004FF0000E23FA0CF310EB030041EB045148
:10409000B4EB115FD0D0A1EB045101F580114908B8
:1040A0005FEA300001EB04510ED350F1000038BF3D
:1040B00012FA0EFE08D1BDE81040C9E7401C38BF17
:1040C0005FEA4202CAD1C3E7BDE810404FEA4103AC
:1040D00013F5001F38BF7047A1F1C04100F03EBB8F
:1040E0009EEA445F08D011EA5E0FBDE8104004BFAD
:1040F00001F0004100207047BDE8104070B500F0AD
:10410000DFFA00BF64FBBE3E0000E0FF02494FF053
:10411000000001F074B800BF0000F87F491058BFDC
:10412000C1F140415B1058BFC3F140438B42EFF3F4
:10413000008070472DE9C04130B4DFF8A0C23CEAEE
:10414000111418BF3CEA131400F0EC8081EA030557
:104150001CEA111444EAD57418BF1CEA131500F0C8
:10416000C780A4EB05044FF0004545EAC12145EAAC
:10417000C32341EA505143EA525304F17F749942F8
:1041800004F500344FEAC0204FEAC22208BF904233
:1041900000F09C804FEA13650FF24016765D4FEAFF
:1041A000134506FB05F7C7F1807706FB07F74FEAD3
:1041B000D737A7FB03687642C8F58038A7FB06CE41
:1041C00038BFA8F1010807FB08E64FF0000EA6FB78
:1041D000028CE6FB03CEDCF1000CCEF1004E38BFC2
:1041E000AEF1010EA6FB0C584FF000074FF0000592
:1041F000E6FB0E87A1FB08C6A0FB07CE16EB0E065A
:1042000045F10005E1FB076515F1E04E7EBFA4F521
:1042100080345FEA46066D4116F1800745F10005DE
:104220004FEA17274FEA066647EA0567A6F1DE461A
:10423000B6F1805F4FEA15251FD9384624F0010CEE
:1042400005EBC471BCF1FE6F01EB0C1102D8F0BCA0
:10425000BDE8008124425CBF01F5801E9EEAC47F58
:1042600002D4F0BCBDE80081244238D4F0BCA1F1F6
:10427000C041BDE8004100F071BA4FEAD22242EAE3
:1042800043524FEAD323A7FB02864FEAD02040EAED
:10429000415007FB03661EEA0E0F4FEAD12105FBD2
:1042A000026658BFA6EB0056B6EB00564FEA520E18
:1042B0004EEAC37E18EB0E0E56EB530EBDD518EB2F
:1042C00002085E417F1C55F10005B6E74FF48015EA
:1042D0004FF000074FF000064FF00008ADE7F0BCCC
:1042E0004FF0000001F1C04101F00041BDE8008144
:1042F00011EA0C1F0CEA131500D00CE013EA0C1F96
:1043000000F025804FF00000F0BC81EA030101F0CD
:104310000041BDE80081F0BCBDE8004181EA030135
:1043200000F01CBAF0BCBDE8004170B500F0C8F95F
:10433000097EFC3E00F007B881EA03014FF000005F
:1043400001F00041704781EA030100F007BAF0BCB8
:10435000BDE800414FF0000021497047FFFDFBF927
:10436000F7F5F4F2F0EEEDEBE9E8E6E4E3E1E0DEA8
:10437000DDDBDAD8D7D5D4D3D1D0CFCDCCCBCAC81A
:10438000C7C6C5C4C2C1C0BFBEBDBCBBBAB9B8B741
:10439000B6B5B4B3B2B1B0AFAEADACABAAA9A8A834
:1043A000A7A6A5A4A3A3A2A1A09F9F9E9D9C9C9B02
:1043B0009A999998979796959594939392919190AD
:1043C0008F8F8E8E8D8C8C8B8B8A8989888887873E
:1043D0008685858484838382828181800000FF07B3
:1043E0000000F87F4FEA41034FEA5353A3F580637F
:1043F000D3F11E03C8BFD3F1210C0CDD4FF00042F6
:1044000042EAC12242EA505232FA03FC8CEAE17CD1
:10441000ACEBE1707047102BC4BF0020704703F570
:10442000787CBCF1FF3F04D06FF0004282EA2100AB
:10443000704770B500F044F949922480002070471D
:10444000F2E700004FEA1153A3F58063D3F11E0396
:10445000A8BFD3F1200C08DB4FF0004242EAC12292
:1044600052EA505232FA03F0704709420BD4102B33
:10447000C4BF0020704703F5787CBCF1FF3F05D036
:104480004FF0FF3070474FF00000704770B500F0FC
:1044900017F900BF4992248000207047F0E710F020
:1044A000004248BF4042B0FA80F310FA03F10AD04C
:1044B000C3F11D0303F580634FEA415002EB035241
:1044C00002EBD12170474FF000007047B0FA80F343
:1044D00010FA03F10AD0C3F11D0303F580634FEA1C
:1044E00041504FEA035202EBD12170474FF00000D8
:1044F0007047000051EA030C17D41CF5801F58BF09
:10450000BCF5801F00F10680994218BF704708BFB4
:104510009042704707D711F5801F58BF13F5801FD1
:1045200019D499427047894270471CF5801F08D5FD
:10453000BCF5801FF7D58B4218BF704708BF824279
:1045400070474FF4001C1CEB410F38BF1CEB430FAE
:1045500001D28B42704770B500F0B2F89224490046
:104560004FF000514FF08053FFF7D8BDDFF848C13E
:1045700070B51CEA111E1EBF1CEA13159EEA0C0F33
:1045800095EA0C0F00F06F8081EA030423EA4C13D4
:104590004EEAD47E21EA4C1141F4801143F4801399
:1045A000AE44A1FB024CA0FB0365AEF17F7E361941
:1045B00055EB0C05A1FB034C4CF10003A0FB021CC6
:1045C00016EB0C06654153F10003094218BF46F093
:1045D000010613F4007F0BD14FEA03314FEA053097
:1045E000340341EA155140EA16506FF003020AE025
:1045F0004FEAC3214FEAC520F40241EA555140EA8F
:1046000056506FF0020202EB2E4201EB025585EA92
:10461000CE710AD05FEA440C18BF24F0004450F178
:10462000000041F1000120EAD47040F2FE7C6245B6
:1046300000D270BDA84214BF4FF080444FF04044F8
:10464000002E08BF0024BEF1806FA8BFA1F1C041B9
:10465000BDE8704080F282804FF0000001F1C0415F
:1046600001F0004170479EEA0C0F0CEA131518BFC9
:1046700095EA0C0F06D04FF0000081EA030E0EF011
:10468000004170BD00F01CF88900013E00F007B841
:1046900000F009B84FEA430C5FEA5C5C08D081EA9D
:1046A000030100F05BB84FEA410C5FEA5C5CF6D1B5
:1046B0004FF00000014970470000FF070000F87F3D
:1046C0000EF1020E2EF0030E5EF8046B364205D496
:1046D000012A43EB030515F5001F12D8012841EB11
:1046E000010C1CF5001F0CD80ED14FEAD17C15F53A
:1046F000001F0CEB4C0C0CF1020C08BF4CEBD37CF4
:1047000004E04FF0080C01E04FEAD37C0CEB4C05C1
:1047100026FA05F606F00706B6F1040C06D20EEBF3
:10472000860CBDE870404CF0010C6047DFE80CF0EF
:10473000090B02024FF000414FF00000A1F50021EB
:1047400070BD19461046012851EB010418BFD4F57D
:10475000001484BF002001F0004170BD0808A0F5DE
:1047600000114FEA3101704753EA010C17D41CF5D0
:10477000801F58BFBCF5801F00F106808B4218BF18
:10478000704708BF8242704707D713F5801F58BF94
:1047900011F5801F19D48B4270479B4270471CF55E
:1047A000801F08D5BCF5801FF7D5994218BF704708
:1047B00008BF904270474FF4001C1CEB430F38BFFA
:1047C0001CEB410F01D2994270470FB40CBC03BCE3
:1047D000FFF7C1BE91EA030F10B581F000413FF52C
:1047E000F5AB83F0004300F0D5B800002DE9F041AF
:1047F00001F5801CBCF5001FC0F2A9804FEA115CD6
:1048000021EA0C510CF1FD0C41F480115FEA5C0CC3
:104810000CF5C07C01D34000494130A4890241EA33
:10482000905187028E0E0A0CA45D04FB04F602FB75
:1048300006F6C6F14046A4FB0662F60D46EA42269D
:1048400006FB06F4A4FB01235242C3F1404338BFE8
:104850005B1EA6FB02420024E6FB0324D20B42EAC5
:104860004446A6FB0623A1FB02E2A3FB07E4E3FB0D
:1048700061426442C2F1404E38BFAEF1010EA6FB68
:1048800004234FF00002E6FB0E32A2FB0346340085
:10489000E2FB6264A1FB06E6A4FB07E8E4FB6168B7
:1048A0007642C8F1405838BFA8F10108A2FB06E4DF
:1048B000A3FB08E5E2FB6854A1FB05E6A7FB04E8BF
:1048C000E1FB648618F1200556F10006A809A8F15D
:1048D0001B08B10908F03F08B8F10A0F40EA8660EA
:1048E0001CD901EB0C51BDE8F08100BFFCF5EEE8EE
:1048F000E2DDD8D3CFCBC7C3C0BDB9B6B4B1AEAC7F
:10490000A9A7A5A3A19F9D9B9A9896959392908FF6
:104910008D8C8B898887868584838281A0FB006843
:1049200000FB01F208EB4208B8EB872807D53418E2
:1049300058EB0104D5D5401C51F10001D1E7341AE0
:1049400078EB0104CDD4401E71F10001C9E75FEAA4
:104950004C0C5FEA9C5C0DD105D34FF0000001F0D8
:104960000041BDE8F081BDE8F04170B5FFF7A8FE59
:104970006DDBFFBEBDE8F0414FF00000004970471D
:104980000000F87F10B591EA030F48BF83F00043A1
:104990003FF51CAB841A71EB030C07D212198CF093
:1049A000004C43EB0C03001B61EB0C01DFF8A4E1AE
:1049B0004FEA1154A4EB135C1EEA430F18BF9EEAA2
:1049C000445F00F0B08023EA6E03524221EA0451B2
:1049D000C3EB6E0338BF5B1EDCF1200E25D322FA39
:1049E0000CFE10EB0E0043FA0CFE41EB0E01CCF175
:1049F000200E03FA0EFE10EB0E0051F10001CCF177
:104A0000200E29D412FA0EF201EB0451BDE8104039
:104A100058BF7047401C1CBFB2F1004F70470028C0
:104A20000CBF491C20F00100704712EB020E43EB53
:104A3000030218BF4FF0010E4EEA4202ACF1200C07
:104A4000DCF11E0E54D943FA0CFE10EB0E0051F1AE
:104A5000FF31CCF11E0ED5D50EF1010E12FA0EFE6D
:104A6000404141EB010101EB445C5FEA5C5C10D921
:104A700010EBDE7001EB045138BFBEF1004FBDE812
:104A8000104018BF704700280CBF491C20F00100DF
:104A9000704730D24FEAD42C11F5001124F4006491
:104AA0001BD0B1FA81F20B3AA41AA41ED2F1200352
:104AB000914030FA03F31943904001EBCC71002C84
:104AC00001EB0451BDE81040A8BF704701F1C0419F
:104AD0004FF0000001F000417047B0FA80F310FA87
:104AE00003F100D110BDE41A173C4805C90AE4E7F8
:104AF00001EB045110BD491001EB0451BDE8104019
:104B00004FEA300002E04FF0000170474A0008BF52
:104B10000042F8D0B2F5001F28BF704701F00041F5
:104B20004FF0000070479EEA445F07D011EA5E0F25
:104B3000BDE8104004BF002100207047BDE81040D0
:104B400070B5FFF7BDFD00BF40DFF63E83F00041CA
:104B5000104670470000E0FF43004FEAD30C4FEAD5
:104B60003C0C43401FBF40070CF1605113F0FE4F57
:104B700070471CF0006F03D100200CF0004170471B
:104B80000CF0004343EA507010B540EACC0000F04E
:104B900044FA00BF000000924FEA0001FFF7DEBDBB
:104BA0004FF000414FF00000A1F5002170470000D8
:104BB00090EA010F48BF81F0004100F1B282421A31
:104BC0003CBF801A89184FEAD0524FF07F4C1CEA44
:104BD000410FA2EBD15318BF9CEA026F00F03B805B
:104BE0004FF0004C4CEA00204CEA012121FA03FC72
:104BF00010EB0C0C1ED202F1FF325FEA1C2040EBDE
:104C0000C25038BF70471CF07F0F4FEA400C18BFEE
:104C1000BCF17F4F38BF7047C3F12003994008BFF4
:104C200020F00100BCF17F4F38BF7047A0F1C040B9
:104C300000F039BA4FEA3C00000A40EBC25028BFEE
:104C40001CF0FF0F4FEA400CE6D018BFBCF17F4FBD
:104C500038BF7047EAE79CEA026F05D010EA5C0FA4
:104C600008BF00F00040704710B500F0D6F900BF53
:104C700064FBBE3E401058BFC0F14040491058BFD1
:104C8000C1F140418142EFF3008070474FF47F0C47
:104C90001CEAD0121EBF1CEAD11392EA0C0F93EA51
:104CA0000C0F00F0858090EA010F48BF42F480723B
:104CB00040F4000C41F400002CF07F4120F07F40D4
:104CC00000B58142A2EB03020FF2081CACEB504E80
:104CD000C0F100009EF800E04FEA4E0E00FB0EFC13
:104CE00038BF49004FEA2C1C02F5FA020CFB0EF308
:104CF0004FEACE1E4FEA112C4FEAC1210EEB635E44
:104D000042EB22420EFB0CFC4FEA1C5300FB03114A
:104D10004FEA112C4FEA01310EFB0CFC4FEADC4C40
:104D200000FB0C11C14228BF09184CEB03335DF89E
:104D300004EB10EB410143EBC250B2F57C0F38BFDE
:104D4000704729D512F0F00F1CBF00F1C04000F0F1
:104D500000407047008182838485868788898B8C98
:104D60008D8E8F919293959697999A9C9D9FA0A2D4
:104D7000A3A5A7A8AAACAEB0B2B3B5B7B9BCBEC024
:104D8000C2C5C7C9CCCED1D4D7D9DCDFE2E6E9ECC5
:104D9000F0F3F7FAFE0000004FEA400C0CF1807CC3
:104DA000BCF17E4F28BF7047B0F1C04000F07BB926
:104DB00090EA010F0CEAD11348BF42F480726245B9
:104DC00038BF634507D213F47F0F16D080EA010085
:104DD00000F00040704710B500F01FF9097EFC3E5E
:104DE00000F005B880EA010000F00040704780EA5A
:104DF000010000F0004000F056B912F47F0F04BF2C
:104E00000248704780EA010000F04DB90000C07F01
:104E100041000B0ED3F19E0208D950F400034FEA73
:104E2000032323FA02F048BF4042704710B500F058
:104E3000F4F800BF49922480002070476FF00042D0
:104E400082EA200070470000C10DD1F19E0206DB0E
:104E50004FEA002343F0004323FA02F07047004278
:104E600007D54FEA4001B1F1FE4F02D24FF00000EA
:104E7000704710B500F0D1F84992248000207047A7
:104E80006FEA200070470000B0FA80F310FA03F2D6
:104E9000C3F19D030AD0D90501EB1220530638BF98
:104EA000704700F1010008BF20F0010070470000CA
:104EB00050EA010C00F113801CF5000F58BFBCF53F
:104EC000000F01D48842704707D710F5000F58BF74
:104ED00011F5000F15D488427047894270471CF5C0
:104EE000000F04D5BCF5000FF7D5814270474FF095
:104EF000807C1CEB400F38BF1CEB410F01D281427C
:104F0000704710B500F089F8922449004FF0005026
:104F10004FF08051FFF7AEBE4FF47F0C1CEAD01269
:104F20001EBF1CEAD11392EA0C0F93EA0C0F00F09B
:104F3000478090EA010F48BF42F480724FF0004C66
:104F40004CEA00204CEA012102EB0302A0FB011312
:104F5000A2F50002002918BF43F001035B0028BF3F
:104F60004FEA330342EB22425FEA132C4CEBC25070
:104F70002EBFBCEB436FB2F57C0F70474FEA036C5A
:104F8000BCF1004F08BF20F00100B2F57C0F38BF24
:104F900070470BD582F0FF0212F5803FC8BF704703
:104FA00000F1C040D8BF00F00040704700F5000C91
:104FB0005FEA4C0C48BF7047B0F1C04000F073B8D6
:104FC00090EA010F0CEAD11348BF42F480726245A7
:104FD00038BF634504D280EA010000F0004070470A
:104FE00010B500F01AF800BF8900013E00F007B8C4
:104FF00000F009B85FEA410C5FEA1C6C08D080EA57
:10500000010000F050B85FEA400C5FEA1C6CF6D17A
:105010004FF00040A0F5800070470EF1020E2EF018
:10502000030E5EF8044B244204D44FEA4102B2F16D
:105030007F4F11D84FEA4003B3F17F4F0CD80ED108
:105040004FEAD07CB2F17F4F0CEB4C0C0CF1020C10
:1050500008BF4CEBD17C04E04FF0080C01E04FEAB4
:10506000D17C0CEB4C0324FA03F404F00704B4F1F4
:10507000040C06D20EEB840CBDE810404CF0010C81
:105080006047DFE80CF0070802024FF00040A0F58F
:10509000800010BD0846420018BFD2F1807288BF60
:1050A00000F0004010BDFF2141EAD050C00570471C
:1050B00051EA000C00F113801CF5000F58BFBCF53D
:1050C000000F01D48142704707D711F5000F58BF78
:1050D00010F5000F15D481427047894270471CF5C6
:1050E000000F04D5BCF5000FF7D5884270474FF08C
:1050F000807C1CEB410F38BF1CEB400F01D2884273
:10510000704780EA010081EA000180EA0100FFF7B0
:10511000F8BE000090EA010F48BF81F000413FF562
:105120004EAD421A04D882F00042A0EB02001144B6
:105130004FEAD0524FF07F4C1CEA410FA2EBD15303
:1051400018BF9CEA026F4AD04FF0004C4CEA002096
:105150004CEA012121FA03FCB0EB0C0C0FD412F045
:10516000FE0F36D05FEA4C001DD5001240EBC25056
:1051700038BF70471CF03F0F18BF70470BE0A2F11B
:1051800001025FEA1C2040EBC25038BF70471CF0A0
:105190007F0F18BF7047C3F12003994014BF401E12
:1051A00020F00100704780084FEA122308BF7047C3
:1051B000B0FA80FCA2EB0C02CCF1280C60FA0CF0E7
:1051C00093EA122F04BF00EBC25070474FEAC3703E
:1051D0007047130A5FEADC1008BF7047F6E79CEAE5
:1051E000026F04D010EA5C0F08BF0020704710B5B2
:1051F000FFF713FF40DFF63E81F0004070470CF0F0
:105200000F03092B08BF082000F059800A2B0BD090
:10521000082B18BF704708BF1CF0400F0AD04FF092
:1052200000004FF0000170471CF0400F18BF4FF016
:10523000004070471CF0100F08D020F0704300F0C1
:105240007F4242EAD3014FEA4370704700F060406A
:1052500021F07F4242EA000201F07F4040EA727092
:1052600070474FF0FF0C4CF4E06C1CEA11531CBF6C
:105270009CEA030C9445C2BFDA4201EB025170472D
:10528000002B0DD0BCF1000F0FD0002A01F000411F
:10529000A4BF41F0E04141F07F614FF00000704752
:1052A00001F000414FF00000704750EA01334FF029
:1052B0009B0C18BF4CF0806C7EF428AF70471CF438
:1052C000801F11D01CF4E02F03D06FEACC314900CD
:1052D00070474FF04050EFF3008222F0704242EAF4
:1052E000000282F3008870474FF00000704711778A
:1052F0000F770E770F770E770D7706770D7711778B
:105300000F770E770F770E0E7711770F770E770FD7
:10531000770E770D7706770D770E770E770E770F6E
:10532000770F0F770D7711770F770E770F770E774F
:105330000D7706770D7711770F770E770F770E0EB3
:105340007711770E770E770E770F770F7706770D39
:105350007706770E770E770F7706770D770077FF52
:1053600011111111110000FF01020305010203FFD9
:10537000A4D082437BD49243A4D0A443719DAE4376
:105380000000C4430000DC43A4F0F6430A978A43BC
:10539000A4909B43B8FEB84366A6CF437B14E94371
:1053A00000000000000000000000000000000000FD
:1053B00000000000000000000000000000000000ED
:1053C00000000000000000000000000000000000DD
:1053D00000000000000000000000000000000000CD
:1053E00000000000000000000000000000000000BD
:1053F00000000000000000000000000000000000AD
:10540000000000000000000000000000000000009C
:10541000000000000000000000000000000000008C
:10542000000000000000000000000000000000007C
:10543000000000000000000000000000000000006C
:10544000000000000000000000000000000000005C
:10545000000000000000000000000000000000004C
:10546000000000000000000000000000000000003C
:10547000000000000000000000000000000000002C
:10548000000000000000000000000000000000001C
:10549000000000000000000000000000000000000C
:1054A00000000000000000000000000000000000FC
:1054B00000000000000000000000000000000000EC
:1054C00000000000000000000000000000000000DC
:1054D00000000000000000000000000000000000CC
:1054E00000000000000000000000000000000000BC
:1054F00000000000000000000000000000000000AC
:10550000000000000000000000000000000000009B
:10551000000000000000000000000000000000008B
:10552000000000000000000000000000000000007B
:10553000000000000000000000000000000000006B
:10554000000000000000000000000000000000005B
:105550000000000000000000010203040607080923
:105560000000000001020304000000000102030427
:1055700002040608020C08100000000000000000F1
:105580000102030406070809000000000000F03FC4
:10559000000000000000F83F0000000000000000D4
:1055A0000000004003B8E23F0000000000000000DF
:1055B00006D0CF43EBFD4C3E033333333333E33F6D
:1055C000FFAB6FDBB66DDB3F4D268F515555D53F99
:1055D00001411DA96074D13F65DBC9934A86CD3F67
:1055E000EF4E454A287ECA3F3E5555555555C53F55
:1055F00093BDBE166CC166BF2CDE25AF6A56113F47
:10560000F16BD2C541BDBBBED0A4BE726937663E48
:1056100000000000000000003856000800000020D4
:10562000D00000000801000808570008D000002042
:10563000B006000024010008000000000000000087
:105640000000000000000000000000000000003F1B
:10565000000000000000000000127A0000000000BE
:10566000000000000000000000000000000000003A
:10567000000000000000000000000000000000002A
:10568000000000000000000000000000000000001A
:10569000000000000000000000000000000000000A
:1056A00000000000000000003333733F0AD7A33B23
:1056B00000000000000000000000000000000000EA
:1056C00000000000000000000000000000000000DA
:1056D00000000000000000000000000000000000CA
:1056E00000000000000000000000000000000000BA
:1056F00006000000000000000000000000000000A4
:085700000000000000000000A1
:04000005080000CD22
:00000001FF
